{
  "_format": "hh-sol-artifact-1",
  "contractName": "Staking",
  "sourceName": "contracts/Token.sol",
  "abi": [
    {
      "inputs": [],
      "stateMutability": "nonpayable",
      "type": "constructor"
    },
    {
      "anonymous": false,
      "inputs": [
        {
          "indexed": true,
          "internalType": "address",
          "name": "owner",
          "type": "address"
        },
        {
          "indexed": true,
          "internalType": "address",
          "name": "spender",
          "type": "address"
        },
        {
          "indexed": false,
          "internalType": "uint256",
          "name": "value",
          "type": "uint256"
        }
      ],
      "name": "Approval",
      "type": "event"
    },
    {
      "anonymous": false,
      "inputs": [
        {
          "indexed": true,
          "internalType": "address",
          "name": "previousOwner",
          "type": "address"
        },
        {
          "indexed": true,
          "internalType": "address",
          "name": "newOwner",
          "type": "address"
        }
      ],
      "name": "OwnershipTransferred",
      "type": "event"
    },
    {
      "anonymous": false,
      "inputs": [
        {
          "indexed": true,
          "internalType": "address",
          "name": "from",
          "type": "address"
        },
        {
          "indexed": true,
          "internalType": "address",
          "name": "to",
          "type": "address"
        },
        {
          "indexed": false,
          "internalType": "uint256",
          "name": "value",
          "type": "uint256"
        }
      ],
      "name": "Transfer",
      "type": "event"
    },
    {
      "inputs": [
        {
          "internalType": "uint256",
          "name": "amount",
          "type": "uint256"
        },
        {
          "internalType": "uint256",
          "name": "elapsed_time",
          "type": "uint256"
        }
      ],
      "name": "_percentages",
      "outputs": [
        {
          "internalType": "uint256",
          "name": "",
          "type": "uint256"
        }
      ],
      "stateMutability": "pure",
      "type": "function"
    },
    {
      "inputs": [
        {
          "internalType": "address",
          "name": "owner",
          "type": "address"
        },
        {
          "internalType": "address",
          "name": "spender",
          "type": "address"
        }
      ],
      "name": "allowance",
      "outputs": [
        {
          "internalType": "uint256",
          "name": "",
          "type": "uint256"
        }
      ],
      "stateMutability": "view",
      "type": "function"
    },
    {
      "inputs": [
        {
          "internalType": "address",
          "name": "spender",
          "type": "address"
        },
        {
          "internalType": "uint256",
          "name": "amount",
          "type": "uint256"
        }
      ],
      "name": "approve",
      "outputs": [
        {
          "internalType": "bool",
          "name": "",
          "type": "bool"
        }
      ],
      "stateMutability": "nonpayable",
      "type": "function"
    },
    {
      "inputs": [
        {
          "internalType": "address",
          "name": "account",
          "type": "address"
        }
      ],
      "name": "balanceOf",
      "outputs": [
        {
          "internalType": "uint256",
          "name": "",
          "type": "uint256"
        }
      ],
      "stateMutability": "view",
      "type": "function"
    },
    {
      "inputs": [],
      "name": "decimals",
      "outputs": [
        {
          "internalType": "uint8",
          "name": "",
          "type": "uint8"
        }
      ],
      "stateMutability": "view",
      "type": "function"
    },
    {
      "inputs": [
        {
          "internalType": "address",
          "name": "spender",
          "type": "address"
        },
        {
          "internalType": "uint256",
          "name": "subtractedValue",
          "type": "uint256"
        }
      ],
      "name": "decreaseAllowance",
      "outputs": [
        {
          "internalType": "bool",
          "name": "",
          "type": "bool"
        }
      ],
      "stateMutability": "nonpayable",
      "type": "function"
    },
    {
      "inputs": [
        {
          "internalType": "uint256",
          "name": "amount",
          "type": "uint256"
        }
      ],
      "name": "deposit",
      "outputs": [],
      "stateMutability": "nonpayable",
      "type": "function"
    },
    {
      "inputs": [
        {
          "internalType": "address",
          "name": "holder",
          "type": "address"
        }
      ],
      "name": "getActiveBalance",
      "outputs": [
        {
          "internalType": "uint256",
          "name": "",
          "type": "uint256"
        }
      ],
      "stateMutability": "view",
      "type": "function"
    },
    {
      "inputs": [
        {
          "internalType": "address",
          "name": "spender",
          "type": "address"
        },
        {
          "internalType": "uint256",
          "name": "addedValue",
          "type": "uint256"
        }
      ],
      "name": "increaseAllowance",
      "outputs": [
        {
          "internalType": "bool",
          "name": "",
          "type": "bool"
        }
      ],
      "stateMutability": "nonpayable",
      "type": "function"
    },
    {
      "inputs": [
        {
          "internalType": "address",
          "name": "to",
          "type": "address"
        },
        {
          "internalType": "uint256",
          "name": "amount",
          "type": "uint256"
        }
      ],
      "name": "mint",
      "outputs": [],
      "stateMutability": "nonpayable",
      "type": "function"
    },
    {
      "inputs": [],
      "name": "name",
      "outputs": [
        {
          "internalType": "string",
          "name": "",
          "type": "string"
        }
      ],
      "stateMutability": "view",
      "type": "function"
    },
    {
      "inputs": [],
      "name": "owner",
      "outputs": [
        {
          "internalType": "address",
          "name": "",
          "type": "address"
        }
      ],
      "stateMutability": "view",
      "type": "function"
    },
    {
      "inputs": [],
      "name": "renounceOwnership",
      "outputs": [],
      "stateMutability": "nonpayable",
      "type": "function"
    },
    {
      "inputs": [
        {
          "internalType": "address",
          "name": "",
          "type": "address"
        }
      ],
      "name": "stake",
      "outputs": [
        {
          "internalType": "uint256",
          "name": "",
          "type": "uint256"
        }
      ],
      "stateMutability": "view",
      "type": "function"
    },
    {
      "inputs": [],
      "name": "symbol",
      "outputs": [
        {
          "internalType": "string",
          "name": "",
          "type": "string"
        }
      ],
      "stateMutability": "view",
      "type": "function"
    },
    {
      "inputs": [
        {
          "internalType": "address",
          "name": "",
          "type": "address"
        }
      ],
      "name": "timer",
      "outputs": [
        {
          "internalType": "uint256",
          "name": "",
          "type": "uint256"
        }
      ],
      "stateMutability": "view",
      "type": "function"
    },
    {
      "inputs": [],
      "name": "tokensWithdraw",
      "outputs": [],
      "stateMutability": "nonpayable",
      "type": "function"
    },
    {
      "inputs": [],
      "name": "totalSupply",
      "outputs": [
        {
          "internalType": "uint256",
          "name": "",
          "type": "uint256"
        }
      ],
      "stateMutability": "view",
      "type": "function"
    },
    {
      "inputs": [
        {
          "internalType": "address",
          "name": "to",
          "type": "address"
        },
        {
          "internalType": "uint256",
          "name": "amount",
          "type": "uint256"
        }
      ],
      "name": "transfer",
      "outputs": [
        {
          "internalType": "bool",
          "name": "",
          "type": "bool"
        }
      ],
      "stateMutability": "nonpayable",
      "type": "function"
    },
    {
      "inputs": [
        {
          "internalType": "address",
          "name": "from",
          "type": "address"
        },
        {
          "internalType": "address",
          "name": "to",
          "type": "address"
        },
        {
          "internalType": "uint256",
          "name": "amount",
          "type": "uint256"
        }
      ],
      "name": "transferFrom",
      "outputs": [
        {
          "internalType": "bool",
          "name": "",
          "type": "bool"
        }
      ],
      "stateMutability": "nonpayable",
      "type": "function"
    },
    {
      "inputs": [
        {
          "internalType": "address",
          "name": "newOwner",
          "type": "address"
        }
      ],
      "name": "transferOwnership",
      "outputs": [],
      "stateMutability": "nonpayable",
      "type": "function"
    },
    {
      "inputs": [],
      "name": "withdraw",
      "outputs": [],
      "stateMutability": "nonpayable",
      "type": "function"
    },
    {
      "stateMutability": "payable",
      "type": "receive"
    }
  ],
  "bytecode": "0x60806040523480156200001157600080fd5b506040518060400160405280600c81526020016b29ba30b5b4b733aa37b5b2b760a11b8152506040518060400160405280600381526020016214d2d560ea1b815250816003908162000064919062000293565b50600462000073828262000293565b505050620000906200008a620000ac60201b60201c565b620000b0565b620000a63369021e19e0c9bab240000062000102565b62000386565b3390565b600580546001600160a01b038381166001600160a01b0319831681179093556040519116919082907f8be0079c531659141344cd1fd0a4f28419497f9722a3daafe3b4186f6b6457e090600090a35050565b6001600160a01b0382166200015d5760405162461bcd60e51b815260206004820152601f60248201527f45524332303a206d696e7420746f20746865207a65726f206164647265737300604482015260640160405180910390fd5b80600260008282546200017191906200035f565b90915550506001600160a01b03821660009081526020819052604081208054839290620001a09084906200035f565b90915550506040518181526001600160a01b038316906000907fddf252ad1be2c89b69c2b068fc378daa952ba7f163c4a11628f55a4df523b3ef9060200160405180910390a35050565b505050565b634e487b7160e01b600052604160045260246000fd5b600181811c908216806200021a57607f821691505b6020821081036200023b57634e487b7160e01b600052602260045260246000fd5b50919050565b601f821115620001ea57600081815260208120601f850160051c810160208610156200026a5750805b601f850160051c820191505b818110156200028b5782815560010162000276565b505050505050565b81516001600160401b03811115620002af57620002af620001ef565b620002c781620002c0845462000205565b8462000241565b602080601f831160018114620002ff5760008415620002e65750858301515b600019600386901b1c1916600185901b1785556200028b565b600085815260208120601f198616915b8281101562000330578886015182559484019460019091019084016200030f565b50858210156200034f5787850151600019600388901b60f8161c191681555b5050505050600190811b01905550565b600082198211156200038157634e487b7160e01b600052601160045260246000fd5b500190565b61129280620003966000396000f3fe6080604052600436106101795760003560e01c806362e4c442116100cb578063a457c2d71161007f578063dd62ed3e11610059578063dd62ed3e14610414578063ec45787c1461045a578063f2fde38b1461048757600080fd5b8063a457c2d7146103b4578063a9059cbb146103d4578063b6b55f25146103f457600080fd5b8063715018a6116100b0578063715018a6146103625780638da5cb5b1461037757806395d89b411461039f57600080fd5b806362e4c4421461030c57806370a082311461032c57600080fd5b8063264762041161012d578063395093511161010757806339509351146102b75780633ccfd60b146102d757806340c10f19146102ec57600080fd5b806326476204146102595780632cb743f714610286578063313ce5671461029b57600080fd5b806318160ddd1161015e57806318160ddd146101fa5780631baa010e1461021957806323b872dd1461023957600080fd5b806306fdde031461019f578063095ea7b3146101ca57600080fd5b3661019a57600061018c34612710610f41565b905061019833826104a7565b005b600080fd5b3480156101ab57600080fd5b506101b461058c565b6040516101c19190610f60565b60405180910390f35b3480156101d657600080fd5b506101ea6101e5366004610fef565b61061e565b60405190151581526020016101c1565b34801561020657600080fd5b506002545b6040519081526020016101c1565b34801561022557600080fd5b5061020b610234366004611019565b610638565b34801561024557600080fd5b506101ea610254366004611034565b6106be565b34801561026557600080fd5b5061020b610274366004611019565b60066020526000908152604090205481565b34801561029257600080fd5b506101986106e2565b3480156102a757600080fd5b50604051601281526020016101c1565b3480156102c357600080fd5b506101ea6102d2366004610fef565b61076b565b3480156102e357600080fd5b506101986107aa565b3480156102f857600080fd5b50610198610307366004610fef565b6107ee565b34801561031857600080fd5b5061020b610327366004611070565b610815565b34801561033857600080fd5b5061020b610347366004611019565b6001600160a01b031660009081526020819052604090205490565b34801561036e57600080fd5b50610198610877565b34801561038357600080fd5b506005546040516001600160a01b0390911681526020016101c1565b3480156103ab57600080fd5b506101b461088b565b3480156103c057600080fd5b506101ea6103cf366004610fef565b61089a565b3480156103e057600080fd5b506101ea6103ef366004610fef565b610944565b34801561040057600080fd5b5061019861040f366004611092565b610952565b34801561042057600080fd5b5061020b61042f3660046110ab565b6001600160a01b03918216600090815260016020908152604080832093909416825291909152205490565b34801561046657600080fd5b5061020b610475366004611019565b60076020526000908152604090205481565b34801561049357600080fd5b506101986104a2366004611019565b610a29565b6001600160a01b0382166105025760405162461bcd60e51b815260206004820152601f60248201527f45524332303a206d696e7420746f20746865207a65726f20616464726573730060448201526064015b60405180910390fd5b806002600082825461051491906110de565b90915550506001600160a01b038216600090815260208190526040812080548392906105419084906110de565b90915550506040518181526001600160a01b038316906000907fddf252ad1be2c89b69c2b068fc378daa952ba7f163c4a11628f55a4df523b3ef9060200160405180910390a35b5050565b60606003805461059b906110f6565b80601f01602080910402602001604051908101604052809291908181526020018280546105c7906110f6565b80156106145780601f106105e957610100808354040283529160200191610614565b820191906000526020600020905b8154815290600101906020018083116105f757829003601f168201915b5050505050905090565b60003361062c818585610ab6565b60019150505b92915050565b6001600160a01b038116600090815260076020526040812054819061065d9042611130565b6001600160a01b038416600090815260066020526040812054919250906106909061032784670de0b6b3a7640000610f41565b6001600160a01b0385166000908152600660205260409020549091506106b690826110de565b949350505050565b6000336106cc858285610c0e565b6106d7858585610c50565b506001949350505050565b60006106ed33610638565b90506000811161073f5760405162461bcd60e51b815260206004820181905260248201527f796f7520646f6e2774206861766520616e792061637469766520746f6b656e7360448201526064016104f9565b61074933826104a7565b5033600090815260066020908152604080832083905560079091529020429055565b3360008181526001602090815260408083206001600160a01b038716845290915281205490919061062c90829086906107a59087906110de565b610ab6565b6107b2610e67565b6005546040516001600160a01b03909116904780156108fc02916000818181858888f193505050501580156107eb573d6000803e3d6000fd5b50565b6107f6610e67565b610588826108066012600a61122b565b6108109084610f41565b6104a7565b600068056bc75e2d631000006a1a1601fc4ea7109e00000061083f8467a688906bd8b00000610f41565b610849919061123a565b61085c906801158e460913d0000061123a565b6108669085610f41565b610870919061123a565b9392505050565b61087f610e67565b6108896000610ec1565b565b60606004805461059b906110f6565b3360008181526001602090815260408083206001600160a01b0387168452909152812054909190838110156109375760405162461bcd60e51b815260206004820152602560248201527f45524332303a2064656372656173656420616c6c6f77616e63652062656c6f7760448201527f207a65726f00000000000000000000000000000000000000000000000000000060648201526084016104f9565b6106d78286868403610ab6565b60003361062c818585610c50565b336000908152600160209081526040808320308452909152902054818110156109e35760405162461bcd60e51b815260206004820152602360248201527f696e636f7272656374206e756d626572206f6620617070726f76656420746f6b60448201527f656e73000000000000000000000000000000000000000000000000000000000060648201526084016104f9565b6109ee3330846106be565b503360009081526006602052604081208054849290610a0e9084906110de565b90915550503360009081526007602052604090204290555050565b610a31610e67565b6001600160a01b038116610aad5760405162461bcd60e51b815260206004820152602660248201527f4f776e61626c653a206e6577206f776e657220697320746865207a65726f206160448201527f646472657373000000000000000000000000000000000000000000000000000060648201526084016104f9565b6107eb81610ec1565b6001600160a01b038316610b315760405162461bcd60e51b8152602060048201526024808201527f45524332303a20617070726f76652066726f6d20746865207a65726f2061646460448201527f726573730000000000000000000000000000000000000000000000000000000060648201526084016104f9565b6001600160a01b038216610bad5760405162461bcd60e51b815260206004820152602260248201527f45524332303a20617070726f766520746f20746865207a65726f20616464726560448201527f737300000000000000000000000000000000000000000000000000000000000060648201526084016104f9565b6001600160a01b0383811660008181526001602090815260408083209487168084529482529182902085905590518481527f8c5be1e5ebec7d5bd14f71427d1e84f3dd0314c0f7b2291e5b200ac8c7c3b925910160405180910390a3505050565b6001600160a01b038381166000908152600160209081526040808320938616835292905220546000198114610c4a57610c4a8484848403610ab6565b50505050565b6001600160a01b038316610ccc5760405162461bcd60e51b815260206004820152602560248201527f45524332303a207472616e736665722066726f6d20746865207a65726f20616460448201527f647265737300000000000000000000000000000000000000000000000000000060648201526084016104f9565b6001600160a01b038216610d485760405162461bcd60e51b815260206004820152602360248201527f45524332303a207472616e7366657220746f20746865207a65726f206164647260448201527f657373000000000000000000000000000000000000000000000000000000000060648201526084016104f9565b6001600160a01b03831660009081526020819052604090205481811015610dd75760405162461bcd60e51b815260206004820152602660248201527f45524332303a207472616e7366657220616d6f756e742065786365656473206260448201527f616c616e6365000000000000000000000000000000000000000000000000000060648201526084016104f9565b6001600160a01b03808516600090815260208190526040808220858503905591851681529081208054849290610e0e9084906110de565b92505081905550826001600160a01b0316846001600160a01b03167fddf252ad1be2c89b69c2b068fc378daa952ba7f163c4a11628f55a4df523b3ef84604051610e5a91815260200190565b60405180910390a3610c4a565b6005546001600160a01b031633146108895760405162461bcd60e51b815260206004820181905260248201527f4f776e61626c653a2063616c6c6572206973206e6f7420746865206f776e657260448201526064016104f9565b600580546001600160a01b038381167fffffffffffffffffffffffff0000000000000000000000000000000000000000831681179093556040519116919082907f8be0079c531659141344cd1fd0a4f28419497f9722a3daafe3b4186f6b6457e090600090a35050565b634e487b7160e01b600052601160045260246000fd5b6000816000190483118215151615610f5b57610f5b610f2b565b500290565b600060208083528351808285015260005b81811015610f8d57858101830151858201604001528201610f71565b81811115610f9f576000604083870101525b50601f017fffffffffffffffffffffffffffffffffffffffffffffffffffffffffffffffe016929092016040019392505050565b80356001600160a01b0381168114610fea57600080fd5b919050565b6000806040838503121561100257600080fd5b61100b83610fd3565b946020939093013593505050565b60006020828403121561102b57600080fd5b61087082610fd3565b60008060006060848603121561104957600080fd5b61105284610fd3565b925061106060208501610fd3565b9150604084013590509250925092565b6000806040838503121561108357600080fd5b50508035926020909101359150565b6000602082840312156110a457600080fd5b5035919050565b600080604083850312156110be57600080fd5b6110c783610fd3565b91506110d560208401610fd3565b90509250929050565b600082198211156110f1576110f1610f2b565b500190565b600181811c9082168061110a57607f821691505b60208210810361112a57634e487b7160e01b600052602260045260246000fd5b50919050565b60008282101561114257611142610f2b565b500390565b600181815b8085111561118257816000190482111561116857611168610f2b565b8085161561117557918102915b93841c939080029061114c565b509250929050565b60008261119957506001610632565b816111a657506000610632565b81600181146111bc57600281146111c6576111e2565b6001915050610632565b60ff8411156111d7576111d7610f2b565b50506001821b610632565b5060208310610133831016604e8410600b8410161715611205575081810a610632565b61120f8383611147565b806000190482111561122357611223610f2b565b029392505050565b600061087060ff84168361118a565b60008261125757634e487b7160e01b600052601260045260246000fd5b50049056fea26469706673582212204859e73974a8b61bc3380170066c5d27bcacfa7f8d684cc93b62ebf07026d7d364736f6c634300080f0033",
  "linkReferences": {},
  "deployedLinkReferences": {}
}